:020000040800F2
:10000000300A0020450100089F1A0008A11A0008C4
:10001000A51A0008A91A0008AD1A0008000000007F
:10002000000000000000000000000000B11A0008FD
:10003000B31A000800000000B51A0008B71A00083B
:100040005F0100085F0100085F010008E726000863
:100050005F0100085F0100085F0100085F01000800
:100060005F0100085F0100085F0100085F010008F0
:100070005F0100085F0100085F0100085F010008E0
:100080005F0100085F0100085F0100085F010008D0
:100090005F0100085F0100085F0100085F010008C0
:1000A0005F0100085F0100085F0100085F010008B0
:1000B0005F0100085F0100085F0100085F010008A0
:1000C0005F0100085F0100085F0100085F01000890
:1000D0005F010008232300085F0100085F0100089A
:1000E0005F0100085F0100085F0100085F01000870
:1000F0005F0100085F0100085F0100085F01000860
:100100005F0100085F0100085F0100085F0100084F
:100110005F0100085F0100085F0100085F0100083F
:100120005F0100085F0100085F0100085F0100082F
:10013000DFF80CD002F010FB004800473116000831
:10014000300A00200648804706480047FEE7FEE7E1
:10015000FEE7FEE7FEE7FEE7FEE7FEE7FEE7FEE777
:1001600047020008310100080CB500200190009002
:100170006C48006840F480306A49086000BF6948F4
:10018000006800F4003000900198401C0190009835
:1001900018B90198B0F5A06FF1D16248006800F479
:1001A000003010B10120009001E000200090009884
:1001B000012843D15C48006840F010005A490860AB
:1001C0000846006820F0030008600846006840F018
:1001D0000200086053484068524948600846406839
:1001E00048600846406840F48060486008464068BF
:1001F00020F47C1048600846406840F4E8104860ED
:100200000846006840F08070086000BF45480068FC
:1002100000F000700028F9D04248406820F0030048
:10022000404948600846406840F00200486000BF0E
:100230003C48406800F00C000828F9D10CBD10B50E
:10024000FFF792FF10BD10B53648006840F001007E
:1002500034490860084640683449084031494860DC
:1002600008460068324908402E4908600846006880
:1002700020F4802008600846406820F4FE004860B2
:100280004FF41F008860FFF7DAFF4FF00060294944
:10029000086010BD10B5002100200022214B5B68D2
:1002A00003F00C0121B1042906D0082928D107E068
:1002B000214B224C236027E01F4B204C236023E07E
:1002C000184B5B6803F47010164B5B6803F48032C4
:1002D000022303EB904022B9194B4343174C236090
:1002E0000DE0104B5B6803F4003323B1144B434320
:1002F000124C236003E0104B4343104C236003E097
:100300000D4B0E4C236000BF00BF064B5B68C3F370
:1003100003130C4CE15C094B1B68CB40074C23607A
:1003200010BD000000100240002002400000FFF855
:10033000FFFFF6FE08ED00E000127A00000000204A
:1003400000093D000400002031490143314A116099
:10035000704770B5002100230F22C47804B32D4CE0
:10036000246804F4E064C4F5E064210AC1F10403E4
:10037000CA40447804FA03F1847814402143090107
:10038000254C0678A155047804F01F050124AC40E3
:1003900005786D11AD0005F1E025C5F8004109E0D3
:1003A000047804F01F050124AC401C4D067876113A
:1003B00045F8264070BD1A4A0A400243154B1B1FE0
:1003C0001A60704739B1134A121D12680243114B6B
:1003D0001B1D1A6006E00F4A121D126882430D4B66
:1003E0001B1D1A607047042808D14FF0E0210969ED
:1003F00041F004014FF0E022116107E04FF0E021ED
:10040000096921F004014FF0E022116170470000FA
:100410000000FA050CED00E000E400E080E100E0FF
:1004200080FFFF1F10B5012000F016FE002000F035
:1004300013FE10BD2A49086070472949091F08604A
:100440007047274984310860704701460020254ADB
:1004500010884FF67F4210400843224A10807047B0
:10046000014600201F4A10884FF680721040084352
:100470001C4A1080704708B500220092194A2C3A95
:100480000092009A02440092009A116008BD08B5DB
:1004900001460020009013482C3800900098084432
:1004A00000900098008808BD0D489C300068C0B2DC
:1004B00070470C480830008840F0010009490831B5
:1004C000088070470648A0300068C0B270470548F1
:1004D0000830008840F00200024908310880704767
:1004E00004860D422C6C004010B50446CC48844272
:1004F00008D10121042000F095FD0021042000F026
:1005000091FD46E0C748844208D10121082000F04F
:1005100089FD0021082000F085FD3AE0C2488442B0
:1005200008D10121102000F07DFD0021102000F0F5
:1005300079FD2EE0BD48844208D10121202000F041
:1005400071FD0021202000F06DFD22E0B8488442BA
:1005500008D10121402000F065FD0021402000F07D
:1005600061FD16E0B348844208D10121802000F0EB
:1005700059FD0021802000F055FD0AE0AE4884427C
:1005800007D10121801500F04DFD0021A01500F0DC
:1005900049FD10BD10B50121084600F043FD0021C2
:1005A000012000F03FFD10BD2DE9F041024600257D
:1005B0000026002000230024002791F803C00CF03F
:1005C0000F0591F803C00CF0100CBCF1000F03D024
:1005D00091F802C04CEA050591F800C0BCF1000F8B
:1005E00031D0146800202BE04FF0010C0CFA00F31E
:1005F000B1F800C00CEA03069E4220D183004FF000
:100600000F0C0CFA03F7BC4305FA03FC4CEA040494
:1006100091F803C0BCF1280F06D14FF0010C0CFA81
:1006200000FCC2F814C00AE091F803C0BCF1480F06
:1006300005D14FF0010C0CFA00FCC2F810C0401CB0
:100640000828D1D31460B1F800C0BCF1FF0F34DD2D
:10065000546800202EE000F1080C4FF0010808FA61
:100660000CF3B1F800C00CEA03069E4221D18300CE
:100670004FF00F0C0CFA03F7BC4305FA03FC4CEAED
:10068000040491F803C0BCF1280F05D100F1080C57
:1006900008FA0CF8C2F8148091F803C0BCF1480FB6
:1006A00007D100F1080C4FF0010808FA0CF8C2F865
:1006B0001080401C0828CED35460BDE8F0814FF66E
:1006C000FF710180022181700421C17070470246D0
:1006D000002093680B400BB1012000E00020704720
:1006E0000146886880B2704702460020D3680B40FC
:1006F0000BB1012000E0002070470146C86880B2BD
:10070000704701617047416170470AB1016100E0C3
:1007100041617047C16070474FF480320A43826183
:100720008161826182698269704702460020434B81
:1007300018684FF68073184040EA021008433F4B98
:10074000186070473E49C8617047F0B50A460023FB
:1007500000240021002500F00046B6F1004F02D130
:10076000364EF16901E0354E7168C0F3034583B23E
:1007700000F44016B6F5401F08D121F070612F4EED
:10078000766826F070662D4F7E6012E000F48016C9
:10079000B6F5801F06D1032606FA05F4A14341F001
:1007A000706106E0460D360103FA06F6B14341F0EA
:1007B000706122B1460D360103FA06F6314300F0AE
:1007C0000046B6F1004F02D11C4EF16101E01B4E14
:1007D0007160F0BD30B500228B071C0F0F2303FAA8
:1007E00004F2164B08338C1053F824309343134C07
:1007F00008348D1044F8253023468C1053F82430EB
:100800008C07240F00FA04F423430C4C08348D1099
:1008100044F8253030BD0A49DC31086070470000DB
:1008200000080140000C014000100140001401408C
:1008300000180140001C0140002001400000014060
:100840000000204210B50446F748844209D1012136
:10085000480500F0F4FB00214FF4001000F0EFFB1E
:1008600008E00121880500F0EAFB00214FF4800038
:1008700000F0E5FB10BD2DE9F04385B004460D46C0
:100880000026B1460427DFF8A483A6884FF6C0707F
:100890000640684600F03FFBDDF80880E448B8FBFE
:1008A000F0F01FFA80F946EA0906A68020884FF684
:1008B000FE71084020800026DE49286888420CD856
:1008C00028684000B8FBF0F087B2042F00DA042754
:1008D0003E4309F10100208427E0E8884BF6FF71D0
:1008E000884206D1286800EB4000B8FBF0F087B2E0
:1008F00009E0286800EBC00101EB0010B8FBF0F044
:1009000087B247F48047C7F30B0008B947F00107E7
:1009100047F4004006434FF4967009FB00F04FF493
:100920007A7190FBF1F0401C2084A683208840F06F
:100930000100208026884FF6F5300640A888698996
:10094000084306432680A88929890843208105B0E9
:10095000BDE8F08341F288310160002181804BF6CF
:10096000FF71C1800021018141814FF4804181816B
:10097000704721B1028842F00102028004E002883F
:100980004FF6FE731A400280704721B1828842F40C
:100990000062828004E082884FF2FF731A408280F6
:1009A000704721B1828842F48052828004E08288BC
:1009B0004EF6FF731A408280704721B1028842F4DC
:1009C0008072028004E002884FF6FF631A400280C2
:1009D000704721B1028842F40072028004E002886C
:1009E0004FF6FF531A400280704721B1028842F44B
:1009F0008062028004E002884FF6FF331A400280D2
:100A000070470A46002181894FF60173194002F0B0
:100A1000FE0319438181704721B1828942F00102AE
:100A2000828104E082894FF6FE731A40828170470A
:100A300021B1028842F04002028004E002884FF6B1
:100A4000BF731A40028070471AB183880B438380BA
:100A500002E083888B4383807047018270470146A0
:100A6000088AC0B2704712B141F0010102E04FF6AE
:100A7000FE7319400182704708B5024600200090BD
:100A800000920098084400900098008808BD21B1A9
:100A9000028842F40042028003E00288C2F30E02A0
:100AA00002807047B1F5006F04D1028842F4006201
:100AB000028004E002884FF2FF731A400280704700
:100AC000B1F5005F04D1028842F40052028004E0D4
:100AD00002884DF6FF731A400280704721B10288E8
:100AE00042F48052028004E002884EF6FF731A40FE
:100AF00002807047B1F5006F04D1028842F40062B1
:100B0000028004E002884FF2FF731A4002807047AF
:100B100021B1028842F02002028004E002884FF6F0
:100B2000DF731A40028070470146088B001270473D
:100B300021B1028842F01002028004E002884FF6E0
:100B4000EF731A400280704721B9028842F0800298
:100B5000028004E002884FF67F731A4002807047DB
:100B6000B1F5804F05D0828B4BF6FF731A4082831C
:100B700003E0828B42F480428283704770B5024664
:100B80000024002500230020958A138B1B0445EACE
:100B9000030626F07F4404EA01068E4201D10120BB
:100BA00000E0002070BD10B50146002000230022A7
:100BB0008B8A0A8B120443EA020424F07F4010BDA2
:100BC0000CB50246002000230193009300920B0F06
:100BD000019321F07F41019B1BB1009B14330093D3
:100BE00003E0090C009B18330093009B1B680B402B
:100BF0000BB1012000E000200CBD002221F07F425B
:100C0000D3438382704730B5024600200023948886
:100C100001F0E06504EA154321F07F41948A0C401D
:100C200054B14BB1012008E00054004000127A009A
:100C300040420F00A0860100002030BD002221F0BC
:100C40007F42D3438382704710B50121080700F02B
:100C5000F6F900214FF0805000F0F1F910BD2A495B
:100C60000862704728490861704701460020274AFA
:100C7000106820F0E0000843106070472249A0315E
:100C80000860704710B502460020204B186820F01D
:100C90000300104318601E4B1B6843F004031C4CF8
:100CA0002360012901D130BF00E020BF184B1B6831
:100CB00023F00403164C236010BD1448006840F074
:100CC0000400124908600846006840F0020008600D
:100CD0000F48006840F004000D49086000BF00BFE5
:100CE00030BF704701460020084A52680A400AB1E6
:100CF000012000E0002070470449096841EA8001B2
:100D0000024A11607047000000000E42007000406F
:100D100010ED00E0DF48006840F00100DD490860A8
:100D200008464068DC490840DA49486008460068DF
:100D3000DA490840D74908600846006820F4802056
:100D400008600846406820F4FE0048604FF41F0029
:100D500088607047CF49096821F48031CD4A11601D
:100D60001146096821F480211160B0F5803F03D05D
:100D7000B0F5802F0ED106E0C649096841F48031F4
:100D8000C44A116007E0C349096841F4A021C14A7F
:100D9000116000E000BF00BF704710B5014600229F
:100DA000002300204A11012A02D1BA4C236806E030
:100DB000022A02D1B74C236A01E0B64C636A01F003
:100DC0001F02012494401C400CB1012000E00020CF
:100DD00010BD38B5002000900024002500BF312050
:100DE000FFF7DBFF05460098401C00900098B0F527
:100DF000A06F01D0002DF2D03120FFF7CEFF08B157
:100E0000012400E00024204638BD01460020A14A0C
:100E1000106820F0F80040EAC10010607047A04957
:100E200008607047024600209A4B586820F47C10F6
:100E300042EA01031843974B586070479849086687
:100E4000704701460020934A506820F00300084391
:100E5000506070478F48406800F00C0070470146B2
:100E600000208C4A506820F0F00008435060704722
:100E700001460020874A506820F4E0600843506033
:100E8000704701460020834A506820F4605040EAD1
:100E9000C1005060704729B17E4A527A02437D4BAF
:100EA0005A7204E07B4A527A82437A4B5A727047F4
:100EB0007B49D8310860704701460020754A506868
:100EC00020F440400843506070470021714A2032AE
:100ED0001170704A82F82010012802D004280AD12B
:100EE00004E001216B4A2032117005E00521694AB6
:100EF0002032117000E000BF00BF704769490860F0
:100F000070476449096A0143624A11627047654942
:100F100044390860704730B50021002200240023C6
:100F20005C4D6D6805F00C0121B1042905D008293C
:100F300023D105E05C4D056022E05B4D05601FE0BC
:100F4000544D6D6805F47012524D6D6805F480348F
:100F5000022505EB92421CB9544D554305600BE048
:100F60004C4D6D6805F400351DB1504D554305607D
:100F700002E04D4D5543056002E04B4D056000BF5A
:100F800000BF444D6D6805F0F0010909484D6B5CE8
:100F90000568DD4045603F4D6D6805F4E061090A74
:100FA000434D6B5C4568DD4085603A4D6D6805F4E6
:100FB0006051C90A3E4D6B5C4568DD40C560354DEA
:100FC0006D6805F44041890B3A4D6B5CC568B5FB13
:100FD000F3F5056130BD29B12E4A526902432D4B0C
:100FE0005A6104E02B4A526982432A4B5A61704786
:100FF00029B1284A92690243264B9A6104E0254AA6
:1010000092698243234B9A61704729B1214AD26980
:101010000243204BDA6104E01E4AD26982431D4B31
:10102000DA61704729B11B4AD2680243194BDA6072
:1010300004E0184AD2688243164BDA60704729B13F
:10104000144A12690243134B1A6104E0114A1269EF
:101050008243104B1A61704712494039086070474B
:101060000F49C86470470B49C87170470948406A06
:1010700040F0807007494862704701460020054AE9
:1010800092680A400AB1012000E00020704701493F
:1010900088727047001002400000FFF8FFFFF6FE64
:1010A000000042428004424200127A0000093D00E2
:1010B000140000202400002029B1504A1288024365
:1010C0004E4B1A8004E04D4A128882434B4B1A80E3
:1010D00070474A48001D008840F010004749091D2C
:1010E000088070474548001D00884FF6EF710840A2
:1010F0004249091D08807047002140481C30018882
:10110000001F008841EA0040704700B50246FFF723
:10111000E0FF100C394918310880091D0A80FFF7DB
:10112000E1FF00BD00B50246FFF7D3FFC2F3034065
:10113000324908310880091D0A80FFF7D3FF00BD3E
:1011400000B50246FFF7C5FF100C2C49203108807E
:10115000091D0A80FFF7C6FF00BD00202749103196
:1011600009880907080B2549143109880843704785
:1011700000BF2248001D008800F020000028F8D0A1
:1011800070471E48001D00884FF6F77108401B4944
:10119000091D088000BF1948001D008800F00800E4
:1011A0000028F8D0704701460020144A121D12880A
:1011B0000A400AB1012000E0002070470F49091DD4
:1011C000098881430D4A121D118070470146002095
:1011D0000A4A121D12880A40D0B2084A12880A40F0
:1011E00012B108B1012000E0002070470349091D39
:1011F00009888143014A121D118070470028004070
:1012000010B50446FB48844209D101218803FFF749
:1012100009FF00214FF48040FFF704FF32E0F64859
:10122000844209D101214804FFF709FF00214FF44E
:101230000030FFF704FF25E0F048844209D1012186
:101240008804FFF7FCFE00214FF48020FFF7F7FE33
:1012500018E0EB48844209D10121C804FFF7EFFEF2
:1012600000214FF40020FFF7EAFE0BE0E54884423E
:1012700008D101210805FFF7E2FE00214FF480109C
:10128000FFF7DDFE10BD2DE9F04786B005460E469E
:101290000024A24600BFA1460027B08900B100BFCC
:1012A0002F462C8A4CF6FF700440F08804432C82B1
:1012B000AC894EF6F3100440B08831890843718937
:1012C00008430443AC81AC8A4FF6FF400440B08928
:1012D0000443AC8201A8FFF71EFEC648874202D134
:1012E000DDF810A001E0DDF80CA0A88900F40040B2
:1012F00040B10AEBCA0000EB0A1031684900B0FBAC
:10130000F1F807E00AEBCA0000EB0A103168890027
:10131000B0FBF1F86420B8FBF0F00401200964216F
:1013200001FB1089A88900F4004040B1322000EB95
:10133000C900B0FBF1F000F00700044308E03220E0
:1013400000EB09106421B0FBF1F000F00F00044342
:101350002C8106B0BDE8F0874FF4165101600021E2
:101360008180C18001810C214181002181817047F0
:1013700010B502460020108A4FF2FF0318400B8878
:101380004C8823438C882343CC8823431843108202
:1013900010BD0021018041808180C180704721B152
:1013A000828942F40052828104E082894DF6FF7303
:1013B0001A4082817047F0B50346002400260025BC
:1013C000002040F66A17B94200D100BF1846C1F3A9
:1013D000421401F01F06012707FA06F5012C01D17E
:1013E0000C3004E0022C01D1103000E014301AB1AE
:1013F00007682F43076002E00768AF430760F0BD4E
:101400001AB1838A0B43838202E0838A8B438382EF
:101410007047028A4FF6F0731A400282028A0A432A
:101420000282704782894FF2FF731A40828182895B
:101430000A438281704721B1828942F0020282818F
:1014400004E082894FF6FD731A4082817047028A58
:101450004FF6DF731A400282028A0A430282704703
:1014600021B1028A42F48042028204E0028A4BF6F1
:10147000FF731A4002827047C1F3080282807047EE
:1014800001468888C0F308007047818941F0010156
:1014900081817047028BD2B20283028B42EA012221
:1014A00002837047028B02F47F420283028B0A435D
:1014B0000283704721B1828A42F02002828204E0D6
:1014C000828A4FF6DF731A408282704721B1828A86
:1014D00042F01002828204E0828A4FF6EF731A40D3
:1014E0008282704721B1828A42F00802828204E03F
:1014F000828A4FF6F7731A408282704721B182893F
:1015000042F40042828103E08289C2F30E028281AA
:10151000704721B1828A42F40062828204E0828AAA
:101520004FF2FF731A4082827047828A4FF6FB7334
:101530001A408282828A0A438282704721B1828A5B
:1015400042F00202828204E0828A4FF6FD731A4062
:101550008282704702460020B1F5007F00D100BFB3
:1015600013880B400BB1012000E00020704701F40C
:101570000072B2F5007F00D100BFCA4302807047FD
:1015800070B50246002400230025002040F66A16AC
:10159000B14200D100BFC1F3421501F01F03012683
:1015A00006FA03F3012D02D19689334006E0022D9D
:1015B00002D1168A334001E0968A33400C1201268C
:1015C00006FA04F41688344013B10CB1012000E08F
:1015D000002070BD10B50022002340F66A14A1421D
:1015E00000D100BF0A1201249440A3B2DC4304805E
:1015F00010BD000000380140004400400048004099
:10160000004C00400050004008B501211020FFF7B9
:10161000EFFC4FF40050ADF8000003208DF80200FD
:1016200010208DF803006946FE48FEF7BDFF08BD97
:1016300086B000BF00BF0025A846AA46AB46A94613
:101640000020059004904FF4A060FEF77DFE4FF45B
:10165000165000F017FE00F099FD00F02DFA00F092
:10166000AFFA00F0E0FF0020332113230A22CDE976
:1016700000100B2140F2E37000F077FF00F068FDEE
:101680004FF47A7000F0BFFD00F024FBFFF7BCFFC1
:1016900004E200F05DFD4FF47A7000F0B4FD4FF409
:1016A0007A7000F0B0FD03A902A800F016FD00F06A
:1016B00011FB002409E01C2101EB0411C8B22246F1
:1016C000002100F03CFC601CC4B2042CF3DB0422BB
:1016D0000221002000F033FC06220221122000F03B
:1016E0002EFC0223D0A21946242000F00EFB022378
:1016F000CEA21946642000F008FB102002230090BF
:101700009DF8082019463E2000F0C6FB0522042162
:10171000002000F014FC06220421122000F00FFC2F
:101720000223C1A20421262000F0EFFA072204219F
:10173000642000F004FC1020022300909DF80C208F
:1017400004213E2000F0A8FBB948008800F40040C6
:10175000002844D0B648007800F03F07B5A001F05B
:1017600039F800260DE0B948815DB948FFF784FEDD
:1017700000BF4021B648FFF7EDFE0128F9D1701CEB
:10178000C6B2BE42EFDBB3A001F024F8AF48057843
:101790002946AF48FFF770FE00BF4021AC48FFF775
:1017A000D9FE0128F9D1ABA001F014F84DB94FF4DE
:1017B00000519C48FEF7A7FF4FF47A7000F023FD1C
:1017C00009E0012D07D169039648FEF79AFF4FF40F
:1017D0007A7000F018FD00209549088078E09DF8A7
:1017E00008800A2098FBF0FA98FBF0F100FB118BBF
:1017F0009DF80C9099FBF0F005900A2099FBF0F110
:1018000000FB1190049095A000F0E4FF9DF80810F3
:1018100096A000F0DFFF96A000F0DCFF8DA000F0A6
:10182000D9FF944830F82A0081B28948FFF724FE96
:1018300000BF40218648FFF78DFE0128F9D10A201C
:1018400000F0E1FC8B4830F82B0081B28048FFF7B4
:1018500013FE00BF40217E48FFF77CFE0128F9D12E
:101860000A2000F0D0FC7BA000F0B4FF82A000F0C2
:10187000B1FF9DF80C1084A000F0ACFF75A000F043
:10188000A9FF7C4A059832F8200081B27048FFF722
:10189000F3FD00BF40216E48FFF75CFE0128F9D13F
:1018A0000A2000F0B0FC734A049832F8200081B29C
:1018B0006748FFF7E1FD00BF40216548FFF74AFE9A
:1018C0000128F9D10A2000F09EFC62A000F082FFFE
:1018D0004FF47A7000F097FC4FF47A7000F093FCAC
:1018E0004FF47A7000F08FFC4FF47A7000F08BFCAC
:1018F0004FF47A7000F087FC4FF47A7000F083FCAC
:1019000000F0E8F9002409E01C2101EB0411C8B241
:101910002246002100F013FB601CC4B2042CF3DB50
:101920000C2000905A488288042305211E2000F0D4
:10193000B3FA0C20009056488279022305213C20FE
:1019400000F0AAFA0C2000905148C2790223052128
:101950004E2000F0A1FA0C232D220521362000F0A4
:1019600046FA0C232D220521482000F040FA484871
:101970004078092810DC1020012300220321009068
:10198000392000F089FA1020009041484278012364
:101990000321412000F080FA3D4840780A2808DB06
:1019A000102000903A48427802230321392000F0A9
:1019B00073FA37488078092810DC102001230022B0
:1019C00003210090502000F067FA1020009030486A
:1019D000827801230321582000F05EFA2C48807899
:1019E0000A2808DB1020009029488278022303216E
:1019F000502000F051FA1020009025480278022370
:101A000003211E2000F048FA10233A22032130203F
:101A100000F0EDF910233A220321482000F0E7F905
:101A200038E00000001001403A0000002552480054
:101A3000580500200D0AC4FAB7A2CBCDB5C4D0C555
:101A4000CFA2CEAAA3BA0D0A0D0A00005C050020A1
:101A5000003801400D0A0D0A00000000B5B1C7B002
:101A6000CAAAB6C8CEAAA3BA000000002564000026
:101A70002500000028000020B5B1C7B0CEC2B6C80E
:101A8000CEAAA3BA00000000256420B6C80000005A
:101A9000240600204FF47A7000F0B5FBF9E570479A
:101AA00000BFFEE700BFFEE700BFFEE700BFFEE7A6
:101AB000704770477047704700B585B001214805F1
:101AC000FFF7A3FA01210820FFF792FAC020ADF832
:101AD000000003208DF802001C208DF803006946E9
:101AE000FE48FEF761FDFE48FEF7ACFE0020ADF8B3
:101AF00008004BF6FF70ADF80A003020ADF80C007E
:101B00004FF48060ADF80E000001ADF81000F5480C
:101B100001900121F248FEF72CFF01A9F048FEF7E1
:101B2000AAFE05B000BD70B504460D4600BF4FF4D7
:101B30000031EB48FFF744F80028F8D10121E848CC
:101B4000FEF73BFF00BFE849E548FFF717F800281C
:101B5000F9D000227821E248FEF785FF00BFE34973
:101B6000DF48FFF70BF80028F9D02146DC48FEF7E4
:101B700074FF00BFDD49891CD948FEF7FFFF00282C
:101B8000F8D02946D648FEF768FF00BFD749891C20
:101B9000D348FEF7F3FF0028F8D00121D048FEF724
:101BA00018FF70BD10B5044621460020FFF7BBFFAB
:101BB00010BD10B5044621464020FFF7B4FF10BD0C
:101BC00010B5642000F01FFBAE20FFF7EBFF2020D4
:101BD000FFF7E8FF1020FFF7E5FFB020FFF7E2FF77
:101BE000C820FFF7DFFF0020FFF7DCFF1020FFF722
:101BF000D9FF4020FFF7D6FF8120FFF7D3FFFF205A
:101C0000FFF7D0FFA120FFF7CDFFA620FFF7CAFF07
:101C1000A820FFF7C7FF3F20FFF7C4FFA420FFF76E
:101C2000C1FFD320FFF7BEFF0020FFF7BBFFD52089
:101C3000FFF7B8FFF020FFF7B5FFD920FFF7B2FF9D
:101C40002220FFF7AFFFDA20FFF7ACFF1220FFF7EB
:101C5000A9FFDB20FFF7A6FF2020FFF7A3FF8D20C1
:101C6000FFF7A0FF1420FFF79DFFAF20FFF79AFFBB
:101C700010BD70B504460D4605F1B001C8B2FFF7BE
:101C800091FF102141EA1410FFF78CFF04F00F01BF
:101C900041F00100FFF786FF70BD70B506460024D5
:101CA00015E004F1B001C8B2FFF77CFF0020FFF798
:101CB00079FF1020FFF776FF002504E03046FFF79C
:101CC00078FF681CC5B2802DF8DB601CC4B2082CFC
:101CD000E7DB70BD10B50020FFF7DFFF10BD10B5CA
:101CE0008D20FFF75FFF1420FFF75CFFAF20FFF7A9
:101CF00059FF10BD10B58D20FFF754FF1020FFF7DE
:101D000051FFAE20FFF74EFF10BD2DE9F04706460C
:101D1000894617469A464FF0000800240025BAF17C
:101D2000010F03D0BAF1020F5ED125E020E0785D0B
:101D3000203800F0FF087E2E04DD002609F10100A6
:101D400000F0FF0949463046FFF793FF002409E001
:101D500008EB4801664A02EB4101085DFFF729FFE5
:101D6000601CC4B2062CF3DBB01DC6B2681CC5B241
:101D7000785D0028DBD137E032E0785D203800F074
:101D8000FF08782E04DD002609F1010000F0FF09AC
:101D900049463046FFF76DFF002407E004EB0811C9
:101DA000544A505CFFF705FF601CC4B2082CF5DBF9
:101DB00009F10100C1B23046FFF75BFF002408E0E3
:101DC00004EB081108314B4A505CFFF7F2FE601C2F
:101DD000C4B2082CF4DB06F10800C6B2681CC5B218
:101DE000785D0028C9D100BF00BFBDE8F0872DE9AC
:101DF000F04707460E469046994600250024A8F174
:101E00002000C5B27F2F02DD0027B01CC6B2B9F199
:101E1000100F22D131463846FFF72BFF002407E090
:101E200004EB0511334A505CFFF7C3FE601CC4B2DB
:101E3000082CF5DB701CC1B23846FFF71AFF0024EE
:101E400008E004EB051108312A4A505CFFF7B1FEA7
:101E5000601CC4B2082CF4DB11E031463846FFF7B1
:101E600008FF002409E005EB4501214A02EB41018E
:101E7000085DFFF79EFE601CC4B2062CF3DBBDE8D4
:101E8000F08710B50246012000E050430B00A1F19D
:101E90000104E1B2F9D110BD2DE9FF5F074691467B
:101EA0001E460E9D4FF0000A002444E0301B401EE9
:101EB000C1B20A20FFF7E5FFB9FBF0F00A21B0FB41
:101EC000F1F201FB1208BAF1000F23D1701EA042FB
:101ED00020DDB8F1000F1BD1AB460DE0000C014036
:101EE00000540040801A0600010003008200070031
:101EF00068290008902B000805EBDB71491001FBF5
:101F00000471C8B22B4620220199FFF770FF10E040
:101F10004FF0010AAB4605EBDB71491001FB047180
:101F2000C8B208F13001CAB22B460199FFF75FFF32
:101F300000BF601CC4B2B442B8DBBDE8FF9F2DE90E
:101F4000F04180460E46174600247D01314640464A
:101F5000FFF78FFE00BF06E02A49485DFFF729FE24
:101F60006D1C601CC4B2102CF6DB701CC1B2404664
:101F7000FFF77FFE002406E02249485DFFF719FEC7
:101F80006D1C601CC4B2102CF6DBBDE8F0812DE99D
:101F9000F05F06460F4690461C46DDF828A04FF03D
:101FA000000BE11704EB5171C910A4EBC10131B969
:101FB0002046E11704EB5171C1F3C70506E0204646
:101FC000E11704EB5171C910491CCDB23D4614E034
:101FD00029463046FFF74DFEB1460AE059460BF15F
:101FE000010B1AF80100FFF7E4FD09F1010000F010
:101FF000FF09C145F2DB681CC5B2A542E8DBBDE8BC
:10200000F09F00005000002010B500205C490860DF
:10201000142000F0F8F801205A49C1F8A0011E2050
:1020200000F0CDF810BD10B5642404E0601EC4B209
:10203000012000F0C4F852488038006808B9002C2C
:10204000F4D1012C01DA012010BD642404E0601EEB
:10205000C4B2012000F0B3F849488038006808B1E4
:10206000002CF4D1012C01DA0120EDE70020EBE790
:1020700070B5642404E0601EC4B2012000F09FF833
:102080003F488038006808B9002CF4D1642400254A
:102090001E2000F094F83A488038006800B101250D
:1020A00004E0601EC4B2012000F089F83448803892
:1020B000006808B1002CF4D1284670BD70B500242A
:1020C000002506E06006040EFFF7D2FF0443681CFB
:1020D000C5B2082DF6DB204670BD7CB505460E4620
:1020E000FFF792FFFFF79FFF78BB002405E0FFF7A3
:1020F000E5FF0DF80400601CC4B2052CF7DB9DF869
:1021000000009DF8011008449DF8021008449DF855
:1021100003100844C0B29DF80410884216D19DF8FF
:1021200001109DF8000001EB00200A2190FBF1F066
:1021300028709DF803109DF8020001EB00200A2191
:1021400090FBF1F0307000207CBDFFE70120FBE741
:1021500008B501210420FEF74BFF4FF48070ADF865
:10216000000014208DF8030003208DF8020069465A
:102170000548FEF719FAFFF747FFFFF754FF08BDC0
:10218000A0012142000021420008014010B56FF07B
:102190000400FEF728F92E4800682E49B0FBF1F044
:1021A0002D4908700846007800EB4001C1EBC010D3
:1021B0004FF6FF7101EAC0002849088010BD0146B2
:1021C000254A12784A434FF0E0235A6100229A616F
:1021D0001A46126942F001021A6100BF4FF0E02274
:1021E000106900F001021AB100F48032002AF5D023
:1021F0004FF0E022126922F001024FF0E0231A6151
:1022000000229A6170470146144A12884A434FF0EF
:10221000E0235A6100229A611A46126942F00102D3
:102220001A6100BF4FF0E022106900F001021AB1FC
:1022300000F48032002AF5D04FF0E022126922F03B
:1022400001024FF0E0231A6100229A6170470000FA
:102250000000002000127A005005002052050020E6
:1022600000BF704770B504460D4600BF40214B4883
:10227000FFF770F90028F9D0E1B24848FFF7FCF801
:10228000204670BD10B586B00446012144F204001A
:10229000FEF7AEFE4148FEF7B3FF4FF40070ADF815
:1022A000140003208DF8160018208DF8170005A9DA
:1022B0003B48FEF779F94FF48060ADF81400042034
:1022C0008DF8170005A93648FEF76EF90194002035
:1022D000ADF80800ADF80A00ADF80C00ADF810003C
:1022E0000C20ADF80E0001A92C48FEF7CCFF2520EC
:1022F0008DF8000003208DF801008DF80200012008
:102300008DF803006846FEF724F8012240F22551BB
:102310002248FFF750F801212048FFF740F806B0A7
:1023200010BD10B540F225511C48FFF729F910B334
:102330001A48FFF7A5F8C4B21A48008800F4004014
:10234000C8B91848008800F4804060B10A2C03D056
:1023500000201449088020E01248008840F4004022
:102360001049088019E00D2C06D10E48008840F471
:1023700080400C49088010E00A480088C0F30D0036
:1023800009490C5407480088401C06490880084643
:102390000088C72801DD0020088010BD00380140FA
:1023A00000080140580500205C05002008B5032006
:1023B0008DF8000000208DF801008DF8020001204A
:1023C0008DF803006846FDF7C4FF08BDF0B503466D
:1023D0000C461546642093FBF0F0C6B2642093FBD4
:1023E000F0F700FB1730C1B2132E02DD01F16400DB
:1023F000C1B20846CF1701EB977701EBA707BAB236
:10240000072092FBF0F700FB172082B25719601EDD
:10241000DFF8FCC21CF80000384482B2CF1701EB91
:102420009777BF10A1EB87071FB9032C01DA501E65
:1024300082B2072092FBF0F700FB1720C0B2F0BD7C
:102440000146CA1701EB92729210A1EB820292B977
:10245000642091FBF0F200FB121050B94FF4C870E9
:1024600091FBF0F200FB121008B901207047002028
:10247000FCE70120FAE70020F8E770B50026002409
:102480000025FEF739FE0646A248B6FBF0F4A24846
:102490000088A0423CD0A0490C8040F2B27510E008
:1024A0002846FFF7CDFF40B1B4F5B77F02D3A4F5BE
:1024B000B77404E0681C85B206E0A4F26D14681CD1
:1024C00085B2B4F5B67FEBD800BF9448858000256F
:1024D00016E092498888FFF7B3FF30B1012D04D18F
:1024E0001D2C01D31D3C09E00CE08D48405DA0424D
:1024F00003D88B48405D241A00E003E0681C85B2D5
:102500001C2CE6D200BF681C84498871601CC8710D
:102510008048B6FBF0F100FB11644FF46160B4FB3E
:10252000F0F07E4908704FF46160B4FBF0F100FBFD
:1025300011403C21B0FBF1F0784948704FF46160E4
:10254000B4FBF0F100FB11403C21B0FBF1F201FBC8
:102550001200724988700B46DA7999799888FFF7EA
:1025600035FF6E490872002070BD2DE9F05F064608
:102570000F4690469946DDE90AAB002440F2B2705E
:10258000864203DB40F63300864202DD0120BDE8CF
:10259000F09F40F2B2750AE02846FFF751FF10B1F4
:1025A0006048044401E060480444681C85B2B542B8
:1025B000F2DB781EC7B2002510E05948405D40F2BA
:1025C000A321484304EBC0143046FFF739FF18B18C
:1025D000012D01D14F480444681C85B2BD42ECDB9B
:1025E000A8F1010040F2A321484304EBC014C9EB59
:1025F0004910C0EB092004EB0014CAEB0A1004EBED
:1026000080045C4401214FF0C050FEF7FEFC012025
:10261000FEF725FB2046FEF778FDFEF7A9FDFFF744
:102620002CFF0020B3E71CB500240420FDF72FFF8A
:1026300045F25001884248D001214FF0C050FEF7CA
:10264000E4FC0120FEF70BFBFDF7ECFE0120FEF79A
:102650003CFC05E0601CC4B24FF47A70FFF7D3FD78
:102660004120FEF79AFB0028F4D0FA2C01DB012070
:102670001CBD4FF48070FEF744FC0120FEF747FCC0
:10268000FEF776FDFEF77DFD01210846FEF714FDFD
:10269000FEF76EFDFEF71DFD47F6FF70FEF742FDEB
:1026A000FEF766FD372000210A230222CDE9001043
:1026B0000C2140F2D970FFF758FFFEF713FD45F2E9
:1026C00050010420FDF7D7FE07E0FEF75AFD012177
:1026D0000846FEF7F1FCFEF74BFDFFF767FEFFF73C
:1026E000CCFE0020C4E710B50120FEF76FFD08B155
:1026F000FFF7C3FE0220FEF769FD10B10220FEF7CE
:1027000075FD0520FEF772FDFEF732FD10BD0000DD
:1027100080310008805101005A0500202406002065
:102720008C3100080085E2018033E10130B50B46B1
:10273000014600202022012409E021FA02F59D42F1
:1027400005D303FA02F5491B04FA02F52844151EC5
:10275000A2F10102F1DC30BD064C074D06E0E06855
:1027600040F0010394E8070098471034AC42F6D3D8
:10277000FDF7E2FC98310008B831000870B58C18FC
:1027800010F8015B15F0070301D110F8013B2A1185
:1027900006D110F8012B03E010F8016B01F8016B72
:1027A0005B1EF9D12B0705D40023521E0DD401F86E
:1027B000013BFAE710F8013BCB1A921C03E013F837
:1027C000015B01F8015B521EF9D5A142D8D300206C
:1027D00070BD00000FB4054B10B503A9044A029860
:1027E00000F018F810BC5DF814FB0000652200082A
:1027F0005405002002E008C8121F08C1002AFAD1BF
:1028000070477047002001E001C1121F002AFBD170
:10281000704700002DE9FF4F89B09B460446002514
:1028200006E025280BD05A460B999047641C6D1C76
:1028300020780028F5D10DB02846BDE8F08F00279C
:10284000B8460122474900E0074314F8013F203B06
:1028500002FA03F00842F7D120782E2819D114F893
:10286000010F47F004072A280ED06FF02F022078BE
:10287000A0F1300109290CD808EB880102EB4101D5
:1028800000EB0108641CF2E70A98641C50F8048B02
:102890000A9020780028CED0642808D0692806D075
:1028A00075281ED05A460B9990476D1C58E00A991E
:1028B0004FF00A0901C90A91002802DA40422D218D
:1028C00002E0390504D52B218DF82010012103E009
:1028D000F90704D02021F7E78A4608AE0DE0002171
:1028E000FAE70A994FF00A0901C90A91F7E7494640
:1028F000FFF71CFF303106F8011D0028F7D1ADEBC2
:10290000060000F12009780701D44FF00108C845FE
:1029100002DDA8EB090000E000208046002706E069
:1029200008A85A46C05D0B9990476D1C7F1C5745FF
:10293000F6DB04E030205A460B9990476D1CB8F145
:102940000001A8F10108F5DC05E016F8010B5A4674
:102950000B9990476D1CB9F10001A9F10109F4DC54
:10296000641C65E709280100000000000000000069
:10297000002F000000000700070000147F147F14E0
:1029800000242A7F2A120062640813230036495566
:10299000225000000503000000001C22410000003E
:1029A00041221C000014083E08140008083E0808D4
:1029B000000000A06000000808080808000060602F
:1029C0000000002010080402003E5149453E00006E
:1029D000427F4000004261514946002141454B3150
:1029E000001814127F10002745454539003C4A491C
:1029F000493000017109050300364949493600068E
:102A00004949291E000036360000000056360000F5
:102A10000008142241000014141414140000412270
:102A2000140800020151090600324959513E007C48
:102A30001211127C007F49494936003E4141412232
:102A4000007F4141221C007F49494941007F09091B
:102A50000901003E4149497A007F0808087F0000CB
:102A6000417F4100002040413F01007F0814224186
:102A7000007F40404040007F020C027F007F04083E
:102A8000107F003E4141413E007F09090906003E9A
:102A90004151215E007F09192946004649494931C3
:102AA0000001017F0101003F4040403F001F2040E6
:102AB000201F003F4038403F0063140814630007A4
:102AC0000870080700615149454300007F414100FB
:102AD00000552A552A55000041417F00000402019B
:102AE0000204004040404040000001020400002079
:102AF00054545478007F48444438003844444420B7
:102B000000384444487F00385454541800087E0963
:102B100001020018A4A4A47C007F0804047800002B
:102B2000447D4000004080847D00007F10284400E8
:102B30000000417F4000007C04180478007C0804F9
:102B4000047800384444443800FC24242418001835
:102B5000242418FC007C0804040800485454542021
:102B600000043F444020003C4040207C001C2040AA
:102B7000201C003C4030403C004428102844001CED
:102B8000A0A0A07C004464544C44141414141414E5
:102B90000000000000000000000000000000000035
:102BA000000000F8000000000000003330000000CA
:102BB00000100C06100C06000000000000000000D1
:102BC00040C07840C0784000043F04043F04040043
:102BD000007088FC08300000001820FF211E000053
:102BE000F008F000E018000000211C031E211E0068
:102BF00000F00888700000001E21232419272110EE
:102C000010160E0000000000000000000000000090
:102C1000000000E018040200000000071820400037
:102C200000020418E0000000004020180700000027
:102C3000404080F0804040000202010F010202008B
:102C4000000000F0000000000101011F010101006F
:102C5000000000000000000080B0700000000000D4
:102C6000000000000000000000010101010101015D
:102C700000000000000000000030300000000000F4
:102C800000000000806018040060180601000000C9
:102C900000E010080810E000000F102020100F00C6
:102CA000001010F8000000000020203F202000004D
:102CB00000700808088870000030282422213000A5
:102CC00000300888884830000018202020110E00AD
:102CD0000000C02010F8000000070424243F240056
:102CE00000F80888880808000019212020110E002B
:102CF00000E0108888180000000F112020110E003D
:102D000000380808C83808000000003F0000000034
:102D10000070880808887000001C222121221C00F5
:102D200000E010080810E0000000312222110F001E
:102D3000000000C0C00000000000003030000000B3
:102D40000000008000000000000080600000000023
:102D5000000080402010080000010204081020003C
:102D60004040404040404000040404040404040087
:102D7000000810204080000000201008040201001C
:102D8000007048080808F00000000030360100001C
:102D9000C030C828E810E0000718272423140B00CF
:102DA0000000C038E0000000203C23020227382049
:102DB00008F8888888700000203F202020110E002D
:102DC000C030080808083800071820202010080024
:102DD00008F808080810E000203F202020100F000D
:102DE00008F88888E8081000203F202023201800D9
:102DF00008F88888E8081000203F20000300000041
:102E0000C03008080838000007182020221E0200E1
:102E100008F808000008F808203F210101213F20A0
:102E2000000808F8080800000020203F20200000CB
:102E300000000808F8080800C08080807F000000BB
:102E400008F888C028180800203F200126382000F4
:102E500008F8080000000000203F2020202030005B
:102E600008F8F800F8F80800203F003F003F200075
:102E700008F830C00008F808203F200007183F007D
:102E8000E01008080810E0000F10202020100F00AC
:102E900008F808080808F000203F2101010100009F
:102EA000E01008080810E0000F18242438504F00E4
:102EB00008F8888888887000203F2000030C3020A4
:102EC00000708808080838000038202121221C00E2
:102ED000180808F8080818000000203F200000002B
:102EE00008F808000008F808001F202020201F0014
:102EF0000878880000C83808000007380E01000074
:102F0000F80800F80008F800033C0700073C03003D
:102F1000081868808068180820302C03032C3020A3
:102F20000838C800C83808000000203F2000000012
:102F300010080808C838080020382621202018006A
:102F4000000000FE020202000000007F404040003E
:102F5000000C30C000000000000000010638C00076
:102F600000020202FE000000004040407F0000001E
:102F70000000040202020400000000000000000043
:102F80000000000000000000808080808080808041
:102F90000002020400000000000000000000000029
:102FA00000008080808000000019242222223F201F
:102FB00008F8008080000000003F112020110E0062
:102FC0000000008080800000000E112020201100F1
:102FD000000000808088F800000E112020103F20A3
:102FE0000000808080800000001F22222222130027
:102FF000008080F0888888180020203F2020000072
:103000000000808080808000006B94949493600026
:1030100008F8008080800000203F210000203F2031
:1030200000809898000000000020203F2020000031
:10303000000000809898000000C08080807F000021
:1030400008F8000080808000203F24022D302000FE
:10305000000808F8000000000020203F20200000A9
:103060008080808080808000203F20003F20003FC3
:103070008080008080800000203F210000203F20D1
:103080000000808080800000001F202020201F0082
:10309000808000808000000080FFA12020110E00B1
:1030A0000000008080808000000E112020A0FF80A2
:1030B000808080008080800020203F21200001004F
:1030C00000008080808080000033242424241900A4
:1030D000008080E0808000000000001F20200000B1
:1030E0008080000000808000001F202020103F20F2
:1030F000808080000080808000010E300806010082
:1031000080800080008080800F300C030C300F0026
:1031100000808000808080000020312E0E31200051
:10312000808080000080808080818E701806010081
:1031300000808080808080000021302C222130009F
:1031400000000000807C020200000000003F4040C0
:1031500000000000FF00000000000000FF00000071
:103160000002027C800000000040403F00000000A0
:10317000000601010202040400000000000000003B
:103180000003030601040602050003051F1C1F1EA1
:103190001F1E1F1F1E1F1E1FB83100080000002029
:1031A0005C0500007C270008BC3300085C0500209B
:1031B000D4040000042800081184A24A046809010C
:1031C000020304060708090C6910360204060830D9
:1031D00032313232323332343235323632373238BB
:1031E00032391E040404846F051008E4048F44245B
:1031F000040415040201FF1F1008043F414001228E
:10320000782FFE02424ACA4A03344202FE300EFFC1
:1032100040504C4340404F50505C40FF3CFE22FE2B
:103220000426FC162584FC1009601F22BF403F8243
:10323000FF1713121252827E6A0201B6FE40A010DE
:103240000817030C102142F0151060028C3BFE920F
:1032500001295F481004047E014448507F40407FAC
:103260005048444020592169201E407E42427E023F
:1032700034427E402809FC242424FC2526240812FC
:1032800004101040308F80844C55252525554C80E6
:1032900080803808060909E6F80C048353041E2DC3
:1032A000071F3020DD2C402010881009050911FF70
:1032B000118905C312E012F072F8073D4428FF118E
:1032C000AA44700B830138448292927401831E7C5D
:1032D00044C7017D01990562FF9A0102818A010BB1
:1032E000013669419949FA0101A12A4001212A6D5B
:1032F00001212A6001791501642ADB010915072AD9
:10330000DA01212AD801212AC0010915072A8001E2
:1033100001352A06010918071CE66620076A86158A
:103320007A861C2A8601180A80808686068686C0D0
:10333000C00C0E1C0606D030764D290701311360F3
:103340001C12FE1301021009C41820029E63B20E63
:103350001DFF8181FFF24440300F12FF180923EA5C
:10336000AABFAAEA033F0B012DBC8080800801158B
:10337000240E0C082A01013149041D81808081023C
:103380001901B91706110101090C0E0A14C0012117
:1033900078081E21404050215E08012A4DFFFFC1E0
:1033A000C10409232DC81580FCF3EFF3FC80FF80D6
:0C33B000EEEEEEF5FBFF9CBEB6B6883AD0
:0400000508000131BD
:00000001FF
